:100000000C94B5000C94D2000C94D2000C94D20045
:100010000C94CA040C94D2000C94D2000C94D2001C
:100020000C94D2000C94D2000C9482040C94D20054
:100030000C94D2000C94D2000C94D2000C94D200F8
:100040000C947D010C94D2000C94D2000C94D2003C
:100050000C94D2000C94D2000C94D2000C94D200D8
:100060000C94D2000C94D2006E616E00696E660032
:1000700000407A10F35A00A0724E18090010A5D45F
:10008000E80000E87648170000E40B54020000CABC
:100090009A3B000000E1F505000080969800000002
:1000A00040420F000000A086010000001027000061
:1000B0000000E803000000006400000000000A00E7
:1000C000000000000100000000002C76D888DC67EA
:1000D0004F0823DFC1DFAE59E1B1B796E5E3E45342
:1000E000C63AE651997696E8E6C28426EB898C9B5F
:1000F00062ED407C6FFCEFBC9C9F40F2BAA56FA5FF
:10010000F490055A2AF75C936B6CF9676DC11BFC80
:10011000E0E40D47FEF520E6B500D0ED902E03009B
:10012000943577050080841E080000204E0A0000E8
:1001300000C80C333333330F986E12831141EF8DA7
:100140002114893BE65516CFFEE6DB18D1844B38E7
:100150001BF77C1D901DA4BBE424203284725E2218
:100160008100C9F124ECA1E53D2711241FBECFEF8A
:10017000D8E0DEBFCDBF12E0A0E0B1E0E6E0FCE1F8
:1001800002C005900D92A634B107D9F712E0A6E49B
:10019000B2E001C01D92A136B107E1F70E94D40080
:1001A0000C94010E0C940000EF92FF920F931F939A
:1001B000DF93CF9300D000D000D0CDB7DEB70E9440
:1001C0006C060E94780690935E0280935D020E9406
:1001D0005A040E94FC040E9454060E9468030E9474
:1001E000AF01789480E091E00E946E0D7E0108944A
:1001F000E11CF11C09E211E00E946B039C838B83DC
:10020000C7010E94CB010E9460012DB73EB72A5062
:1002100030400FB6F8943EBF0FBE2DBFEDB7FEB70E
:100220003196ADB7BEB712961C930E931197938378
:10023000828389819A81958384838B819C81978332
:1002400086838D819E81918780870E94590D2DB76D
:100250003EB7265F3F4F0FB6F8943EBF0FBE2DBF8F
:10026000CBCFFC0140815181628173812481358132
:1002700080E02A31310508F081E04A31510518F05B
:10028000882321F410C0882329F010C024173507D3
:1002900050F00CC06A31710518F020E030E008C061
:1002A00022E030E005C023E030E002C021E030E091
:1002B000C9010895EEE6F0E08081816080830895B1
:1002C0002091590230915A02C901089590935A021F
:1002D00080935902F8948091460290914702A09130
:1002E0004802B0914902789480934E0290934F0255
:1002F000A0935002B093510208951F920F920FB62F
:100300000F9211248F939F93AF93BF9380914602D6
:1003100090914702A0914802B09149020196A11D17
:10032000B11D8093460290934702A0934802B09378
:100330004902BF91AF919F918F910F900FBE0F9087
:100340001F901895F89420914602309147024091F1
:100350004802509149027894B901CA010895EEE625
:10036000F0E080818160808310925A0210925902DD
:10037000F8948091460290914702A0914802B09172
:100380004902789480934E0290934F02A0935002BA
:10039000B09351020895EF92FF920F931F93CF9362
:1003A000DF93EC01F894E0904602F0904702009150
:1003B00048021091490278948091590290915A0212
:1003C000892B91F18091590290915A02069761F11F
:1003D00080915302882341F1109253020E94D90464
:1003E000882311F58AE591E00E946E0D0E941904A0
:1003F00000E010E0C0E9D1E014C0FE013197F1F750
:100400000197D9F70E94D904882329F083E791E066
:100410000E946E0D45C10F5F1F4F0E31110509F48B
:1004200023C188EE93E0E9CF8091590290915A025E
:100430008330910509F4C0C08430910540F48130C7
:10044000910509F465C0029708F06FC00CC08530B3
:10045000910509F4E9C08530910508F4C9C00697F3
:1004600009F01EC1FEC00E9419040E94D904209107
:100470004A0230914B0240914C0250914D02882328
:10048000A1F1211531054105510561F4E0924A02BF
:10049000F0924B0200934C0210934D0283E991E0DD
:1004A0000E946E0D80914A0290914B02A0914C02E5
:1004B000B0914D02E81AF90A0A0B1B0B88EBE816FB
:1004C0008BE0F80680E0080780E0180708F4E8C031
:1004D00084EB91E00E946E0D10924A0210924B0242
:1004E00010924C0210924D02B9C021153105410500
:1004F000510509F4D5C08BEC91E00E946E0D10926D
:100500004A0210924B0210924C0210924D02C8C047
:1005100081E40E9414040E9447048A819B814097D1
:1005200008F0BEC082E090E0A5C081E40E941404FF
:100530000E94340480914E0290914F02A09150028B
:10054000B0915102E81AF90A0A0B1B0BE0E9EE160A
:10055000E1E0FE06E0E00E07E0E01E0708F4A0C0C0
:100560000E941904CE010E948F03CE010E94310126
:100570008C0100D000D082EE91E0EDB7FEB79283FF
:100580008183148303830E94590D0F900F900F9065
:100590000F900330110529F410935A020093590269
:1005A0006DC00130110519F484E090E063C00230A1
:1005B000110509F053C05CC081E40E9414040E943C
:1005C000280480914E0290914F02A0915002B09168
:1005D0005102E81AF90A0A0B1B0BF0E2EF16F3E0DE
:1005E000FF06F0E00F07F0E01F0708F459C036C01F
:1005F00081E40E9414040E941C0480914E02909198
:100600004F02A0915002B0915102E81AF90A0A0B68
:100610001B0B80E2E81683E0F80680E0080780E024
:10062000180708F43DC01AC081E40E9414040E9417
:10063000280480914E0290914F02A0915002B091F7
:100640005102E81AF90A0A0B1B0BE0E4EE16E6E089
:10065000FE06E0E00E07E0E01E0710F181E090E00A
:1006600009C00E9419041CC08EEE91E00E946E0D1C
:1006700085E090E090935A0280935902F89480911B
:10068000460290914702A0914802B09149027894A5
:1006900080934E0290934F02A0935002B093510268
:1006A000DF91CF911F910F91FF90EF9008950F93DD
:1006B0001F93062F0E942F0510E005C0F8940E949A
:1006C000490578941F5F1017C8F31F910F91089583
:1006D0000E94540608951F93CF93DF930E94E40471
:1006E000C0E0D0E015E30BC0812F8A95F1F7219689
:1006F0008BE0C93BD80719F420E931E00BC00E9418
:10070000C004882389F30E94C30464E770E00E9458
:10071000D20B9B01C901DF91CF911F9108950F93D7
:100720001F938C0188E192E00E946E0D84EB69E1D9
:100730000E9457030E946B03F8019183808380E03D
:1007400069E10E9457030E946B03F801958384833B
:100750008AE565E00E9457031F910F910895FC01FF
:10076000EE0FFF1F4130510569F4E15DFD4F01902F
:10077000F081E02D808102C0440F551F6A95E2F799
:10078000842B0FC0E15DFD4F0190F081E02D2081B1
:1007900081E090E002C0880F991F6A95E2F780958A
:1007A000822380830895FC01EE0FFF1F4130510525
:1007B00069F4E75DFD4F0190F081E02D808102C07A
:1007C000440F551F6A95E2F7842B0FC0E75DFD4F7C
:1007D0000190F081E02D208181E090E002C0880F3F
:1007E000991F6A95E2F7809582238083089520E01F
:1007F00030E0442311F021E030E0A9010E94D3034E
:100800000895FC01EE0FFF1FED5DFD4F0190F0819B
:10081000E02D208130E002C0359527956A95E2F7FA
:1008200021703070C90108958093520287BD88BD40
:10083000089517BC18BC089582E090E064E041E0A0
:1008400050E00E94D30317BC8091520288BD0895E6
:1008500082E090E062E041E050E00E94D3038091AA
:10086000520287BD18BC089582E090E062E041E04A
:1008700050E00E94D30382E090E064E041E050E069
:100880000E94D3038091520287BD88BD089582E003
:1008900090E062E040E050E00E94D30382E090E00C
:1008A00064E040E050E00E94D3038091520287BD93
:1008B00088BD089582E090E062E041E050E00E944F
:1008C000AF0382E090E064E041E050E00E94AF03BB
:1008D00082E090E066E041E050E00E94AF0382E0F9
:1008E00090E065E041E050E00E94AF0384B5836092
:1008F00084BD84B5806A84BD85B5836085BD17BC21
:1009000018BC08951F920F920FB60F9211242F93C7
:100910003F938F939F9380913502882381F080913C
:10092000860090918700909358028093570280919F
:1009300081008F7B809381001092350218C08091D6
:100940008600909187002091570230915802821BB7
:10095000930B909356028093550291E0909354022A
:1009600080918100806480938100909335029F91F3
:100970008F913F912F910F900FBE0F901F90189560
:1009800080915402089510925402809155029091E2
:10099000560208951F920F920FB60F9211248F9353
:1009A00081E0809353028F910F900FBE0F901F90A4
:1009B000189581E090E062E00E94010420E0892B1C
:1009C00009F421E0822F08951092540210928500BC
:1009D0001092840081E090E060E041E050E00E94ED
:1009E000D30385E38A95F1F781E090E060E040E091
:1009F00050E00E94D303089581E090E060E041E080
:100A000050E00E94AF0380E090E060E040E050E002
:100A10000E94AF0381E090E062E040E050E00E947D
:100A2000AF0381E090E062E041E00E94F703E1E87B
:100A3000F0E0808182608083AFE6B0E08C918062DC
:100A40008C93808180648083E8E6F0E0808182601E
:100A50008083ECE6F0E08081846080830895853BAC
:100A600008F084EB682F70E080E090E020ED37E044
:100A700040E050E00E94B30B24EB30E040E050E057
:100A80000E94E60B2C503E4F3093370220933602E3
:100A90000895AF92BF92CF92DF92EF92FF920F93A1
:100AA0001F9380E090E062E041E050E00E94D303B9
:100AB000609136027091370280E090E00E949A0ABD
:100AC0005B016C012BEA3AEA4AEA50E40E94500BBF
:100AD0007B018C0120E030E040E85FE30E94020AE5
:100AE000882314F461E054C0C801B70120E030E06D
:100AF0004FE753E40E944C0B18160CF045C0C6019A
:100B0000B50120E030E04AE754E40E94060A5B01A8
:100B10006C0120E030E04AE755E40E94500B7B0175
:100B20008C0120E030E040E85FE30E94020A882365
:100B30001CF461E070E024C0C801B70120E03FEF81
:100B40004FE757E40E944C0B1816B4F4C601B501E8
:100B500020E030E040E251E40E94500B0E946E0A17
:100B600080E991E005C0FC013197F1F761507040D8
:100B700061157105C1F70EC0C801B7010E946E0A68
:100B8000CB010197F1F706C0C801B7010E946E0AB8
:100B90006A95F1F780E090E062E040E050E00E946A
:100BA000D303209136023091370240E050E060E4F8
:100BB0007CE980E090E0621B730B840B950B0E9434
:100BC0009C0A5B016C012BEA3AEA4AEA50E40E9473
:100BD000500B7B018C0120E030E040E85FE30E9495
:100BE000020A882314F461E054C0C801B70120E070
:100BF00030E04FE753E40E944C0B18160CF045C050
:100C0000C601B50120E030E04AE754E40E94060A3C
:100C10005B016C0120E030E04AE755E40E94500B94
:100C20007B018C0120E030E040E85FE30E94020A93
:100C300088231CF461E070E024C0C801B70120E003
:100C40003FEF4FE757E40E944C0B1816B4F4C6016F
:100C5000B50120E030E040E251E40E94500B0E94D8
:100C60006E0A80E991E005C0FC013197F1F761500F
:100C7000704061157105C1F70EC0C801B7010E942F
:100C80006E0ACB010197F1F706C0C801B7010E94B7
:100C90006E0A6A95F1F71F910F91FF90EF90DF9028
:100CA000CF90BF90AF90089580E090E062E041E087
:100CB00050E00E94AF038CED95E090933702809353
:100CC00036020895982F8091C00085FFFCCF909345
:100CD000C60080E090E008951092C50087E68093FA
:100CE000C40088E98093C10086E08093C200089523
:100CF00088E392E00895A1E1B0E0E1E8F6E00C9429
:100D0000080C3C017F876E876A01FC0117821682FE
:100D1000838181FD03C06FEF7FEF6FC39E012F5F63
:100D20003F4F398B288BF3012381EE85FF8523FD0F
:100D3000859123FF8191FF87EE87882309F45AC3A9
:100D4000853251F4EE85FF8523FD859123FF819146
:100D5000FF87EE87853229F490E0B3010E942D0DC4
:100D6000E2CF982F10E0882499241032B0F49B32FF
:100D700069F09C3228F4903251F0933271F40BC038
:100D80009D3239F0903349F4116028C0126014602C
:100D900025C0186023C0106121C017FD2AC0892F0B
:100DA00080538A3078F416FF06C0FAE09F9E902C9C
:100DB0001124980E13C03AE0839E802C1124880ED3
:100DC00010620CC09E3221F416FD14C3106406C0DC
:100DD0009C3611F4106802C0983659F4EE85FF85F0
:100DE00023FD959123FF9191FF87EE87992309F0C9
:100DF000BCCF892F8554833020F4812F8061905E91
:100E000007C0892F8556833008F09FC1812F8F7EC0
:100E100086FD02C076E0972E6FE3F62EF822953617
:100E200019F4F0E4FF2A07C0963619F420E8F22AF4
:100E300002C091109A94F7FE0AC03BE3391518F4EA
:100E40005CE3B52E02C0B92CB39427E009C047E09B
:100E5000491520F4BB2447E0942EF7CF292DBB245D
:100E6000C60104969D878C87F6016081718182811D
:100E70009381AE014F5F5F4F0B2D0E943F0C6C01C1
:100E80000981202E332400FF04C003FD02C01DE2AF
:100E900009C0F1FE02C01BE205C0F2FC02C010E076
:100EA00001C010E2C1018C709070892BB9F111233F
:100EB00011F483E001C084E0881510F088240AC092
:100EC000881AF3FC07C080E290E0B3010E942D0D68
:100ED0008A94C9F7112329F0812F90E0B3010E9471
:100EE0002D0D23FE03C008E610E00EC00CE610E056
:100EF0000BC0E114F10409F0805290E0B3010E94AC
:100F00002D0D0F5F1F4F05C0EF2CFF24F0E1EF22E6
:100F1000FF24F8018491882361F714C1F7FE12C001
:100F2000BC0C24FE04C08A81813309F4BA941B14DA
:100F30001CF0BB24B3942DC0F8E0FB1550F538E04D
:100F4000B32E27C0F6FC25C0892D90E08C159D0599
:100F50004CF02CEFC2162FEFD20624F030E8F32A23
:100F600001C09A94992049F0E2E0F0E0EC0FFD1FF7
:100F7000E90DF11D80818033A1F3F7FE0AC0B92C81
:100F8000B394892D90E0C816D90614F0992401C0B5
:100F90009C18F7FC03C025E030E009C01C141D04B8
:100FA0001CF021E030E003C096012F5F3F4F11237A
:100FB00011F02F5F3F4F992029F0892D90E0019685
:100FC000280F391F882D90E02817390714F088243E
:100FD00001C0821A4F2C5524C20189709070892B50
:100FE00039F008C080E290E0B3010E942D0D8A9490
:100FF0008820C1F7112329F0812F90E0B3010E94CE
:101000002D0D43FE07C008C080E390E0B3010E94AD
:101010002D0D8A948820C1F7F7FE46C08601D7FEC1
:1010200002C000E010E076010894E11CF11CE01A17
:10103000F10A41E050E04C0F5D1FE40EF51E260161
:101040004B185108892D90E0AA24BB24A81AB90A8C
:101050005FEF0F3F150729F48EE290E0B3010E9485
:101060002D0DC016D10634F0401651061CF4F701C0
:10107000808101C080E3015010400894E11CF11C04
:101080000A151B052CF090E0B3010E942D0DE0CF56
:101090000C151D0539F49A81963318F4953311F423
:1010A00024FE81E390E04BC08A81813309F00F7EFA
:1010B00090E0B3010E942D0D9920A1F08EE290E006
:1010C000B3010E942D0D12E0E1E0F0E0EC0FFD1FF6
:1010D000E10FF11D1F5F808190E0B3010E942D0D93
:1010E0009A9491F744FC03C085E690E002C085E441
:1010F00090E0B3010E942D0DD7FC05C0C114D104AE
:1011000041F404FF06C0D094C194D108D3948DE279
:1011100001C08BE290E0B3010E942D0D80E305C079
:101120008F5F26EF3FEFC20ED31E3AE0C316D10405
:10113000BCF790E0B3010E942D0DC601C096B3012B
:101140000E942D0DCC84DD8452C1933631F093374B
:1011500099F0933509F059C023C0F6018081898345
:101160005E010894A11CB11C22E030E0C20ED31E27
:1011700021E0E22EF12C12C0F601A080B18016FD14
:1011800003C06FEF7FEF02C0692D70E022E030E016
:10119000C20ED31EC5010E94220D7C011F7713C011
:1011A000F601A080B18016FD03C06FEF7FEF02C093
:1011B000692D70E022E030E0C20ED31EC5010E940E
:1011C000170D7C01106813FF07C01BC080E290E080
:1011D000B3010E942D0D8A94882D90E0E816F9063F
:1011E000A8F30FC0F50117FD859117FF81915F01ED
:1011F00090E0B3010E942D0D81108A940894E108BB
:10120000F108E114F10471F7F2C0943611F0993647
:1012100089F517FF08C0F601208131814281538191
:1012200084E090E00AC0F601808191819C0144270E
:1012300037FD4095542F82E090E0C80ED91E9FE6FE
:10124000F92EF12257FF09C0509540953095219510
:101250003F4F4F4F5F4F90E8F92ACA01B901AE01E5
:101260004F5F5F4F2AE030E00E94A30DE82EE8892F
:10127000EE1A41C0953721F41F7E2AE030E01CC0F1
:10128000197F9F3661F0903720F4983509F0B2C08D
:101290000FC0903739F0983709F0ACC004C028E08F
:1012A00030E00AC0106114FD146020E130E004C099
:1012B00014FD166020E132E017FF08C0F6016081DE
:1012C00071818281938144E050E008C0F601808101
:1012D0009181BC0180E090E042E050E0C40ED51E58
:1012E000AE014F5F5F4F0E94A30DE82E5889E51AAB
:1012F0008FE7F82EF122F6FE0BC08EEFF822E914EC
:1013000038F4F4FE07C0F2FC05C09FEEF92202C0DB
:101310001E2D01C0192DF4FE0DC0FE01EE0DF11DB4
:101320008081803319F4E9EEFE2208C01F5FF2FECF
:1013300005C003C08F2D867809F01F5F0F2DF3FCC9
:1013400014C0F0FE0FC0181510F09E2C0BC09E2C80
:10135000980C911A182D06C080E290E0B3010E940B
:101360002D0D1F5F1815C0F304C0181510F4811A55
:1013700001C0882404FF0FC080E390E0B3010E9405
:101380002D0D02FF1DC001FD03C088E790E00EC0D7
:1013900088E590E00BC0802F867891F001FF02C0B5
:1013A0008BE201C080E2F7FC8DE290E0B3010E9485
:1013B0002D0D06C080E390E0B3010E942D0D9A949C
:1013C000E914C0F3EA94E1E0F0E0EC0FFD1FEE0D4C
:1013D000F11D808190E0B3010E942D0DEE2091F768
:1013E00006C080E290E0B3010E942D0D8A9488200F
:1013F000C1F799CCF30166817781CB016196E2E177
:101400000C94240CD4D008F481E008950CD00AC1C7
:1014100002D140F0F9D030F021F45F3F19F0EBC079
:10142000511134C1EEC00FD198F39923C9F355235C
:10143000B1F3951B550BBB27AA27621773078407C7
:1014400038F09F5F5F4F220F331F441FAA1FA9F37D
:1014500033D00E2E3AF0E0E830D091505040E6956F
:10146000001CCAF729D0FE2F27D0660F771F881FD0
:10147000BB1F261737074807AB07B0E809F0BB0BBF
:10148000802DBF01FF2793585F4F2AF09E3F5105E3
:1014900068F0B1C0FBC05F3FECF3983EDCF386958B
:1014A00077956795B795F7959F5FC9F7880F911D59
:1014B0009695879597F90895E1E0660F771F881F45
:1014C000BB1F621773078407BA0720F0621B730BF8
:1014D000840BBA0BEE1F88F7E0950895BCD088F016
:1014E0009F5790F0B92F9927B751A0F0D1F0660F10
:1014F000771F881F991F1AF0BA95C9F712C0B1302B
:1015000081F0C3D0B1E00895C0C0672F782F88273D
:10151000B85F39F0B93FCCF3869577956795B39569
:10152000D9F73EF490958095709561957F4F8F4FD8
:101530009F4F0895E89409C097FB3EF490958095DD
:10154000709561957F4F8F4F9F4F9923A9F0F92F89
:1015500096E9BB279395F695879577956795B79507
:10156000F111F8CFFAF4BB0F11F460FF1BC06F5FED
:101570007F4F8F4F9F4F16C0882311F096E911C0FF
:10158000772321F09EE8872F762F05C0662371F020
:1015900096E8862F70E060E02AF09A95660F771F34
:1015A000881FDAF7880F9695879597F90895990F10
:1015B0000008550FAA0BE0E8FEEF16161706E8071D
:1015C000F907C0F012161306E407F50798F0621B3E
:1015D000730B840B950B39F40A2661F0232B242B13
:1015E000252B21F408950A2609F4A140A6958FEF32
:1015F000811D811D089597F99F6780E870E060E084
:1016000008959FEF80EC089500240A94161617069B
:1016100018060906089500240A94121613061406E3
:1016200005060895092E0394000C11F4882352F046
:10163000BB0F40F4BF2B11F460FF04C06F5F7F4FFE
:101640008F4F9F4F089557FD9058440F551F59F0E5
:101650005F3F71F04795880F97FB991F61F09F3F9F
:1016600079F087950895121613061406551FF2CFC8
:101670004695F1DF08C0161617061806991FF1CF18
:1016800086957105610508940895E894BB2766273F
:101690007727CB0197F908958ADF08F48FEF089533
:1016A0000BD0C0CFB1DF28F0B6DF18F0952309F0DA
:1016B000A2CFA7CF1124EACFC6DFA0F3959FD1F325
:1016C000950F50E0551F629FF001729FBB27F00DF0
:1016D000B11D639FAA27F00DB11DAA1F649F662745
:1016E000B00DA11D661F829F2227B00DA11D621F94
:1016F000739FB00DA11D621F839FA00D611D221F4E
:10170000749F3327A00D611D231F849F600D211D31
:10171000822F762F6A2F11249F5750408AF0E1F0D4
:1017200088234AF0EE0FFF1FBB1F661F771F881F1D
:1017300091505040A9F79E3F510570F05CCFA6CF65
:101740005F3FECF3983EDCF3869577956795B79508
:10175000F795E7959F5FC1F7FE2B880F911D969532
:10176000879597F90895629FD001739FF001829F3A
:10177000E00DF11D649FE00DF11D929FF00D839F20
:10178000F00D749FF00D659FF00D9927729FB00DBD
:10179000E11DF91F639FB00DE11DF91FBD01CF01D0
:1017A00011240895AA1BBB1B51E107C0AA1FBB1F30
:1017B000A617B70710F0A61BB70B881F991F5A95DD
:1017C000A9F780959095BC01CD010895A1E21A2E4C
:1017D000AA1BBB1BFD010DC0AA1FBB1FEE1FFF1FD5
:1017E000A217B307E407F50720F0A21BB30BE40B25
:1017F000F50B661F771F881F991F1A9469F760956C
:101800007095809590959B01AC01BD01CF01089525
:101810002F923F924F925F926F927F928F929F9200
:10182000AF92BF92CF92DF92EF92FF920F931F93EE
:10183000CF93DF93CDB7DEB7CA1BDB0B0FB6F8949F
:10184000DEBF0FBECDBF09942A88398848885F84DF
:101850006E847D848C849B84AA84B984C884DF8050
:10186000EE80FD800C811B81AA81B981CE0FD11D34
:101870000FB6F894DEBF0FBECDBFED01089528303E
:1018800008F027E03327DA01990F311D87FD9160B9
:1018900000966105710539F432602E5F3D9330E3A7
:1018A0002A95E1F708959F3F30F080387105610572
:1018B00009F03C5F3C5F3D93913008F08068911DDA
:1018C000DF93CF931F930F93FF92EF92192F987F7F
:1018D0009695E92F96959695E90FFF27E653FF4FCA
:1018E00099273327EE24FF24A701E70105900894E8
:1018F000079428F4360FE71EF81E491F511D660F86
:10190000771F881F991F0694A1F70590079428F464
:10191000E70EF81E491F561FC11D770F881F991F1C
:10192000661F0694A1F70590079428F4F80E491F46
:10193000561FC71FD11D880F991F661F771F06945A
:10194000A1F70590079420F4490F561FC71FD81F11
:10195000990F661F771F881F0694A9F78491109529
:10196000177041F0D695C79557954795F794E7942A
:101970001A95C1F7E0E7F0E068941590159135915C
:101980006591959105907FE27395E118F10A430BFB
:10199000560BC90BD009C0F7E10CF11E431F561FAF
:1019A000C91FD01D7EF4703311F48A95E6CFE894F8
:1019B000015030F0080F0AF40027021708F4202F16
:1019C0002395022F7A3328F079E37D932A95E9F75E
:1019D00010C07D932A9589F606949795679537955B
:1019E00017951794E118F10A430B560BC90BD00950
:1019F00098F023957E9173957A3308F070E37C9389
:101A00002013B8F77E9170617D9330F0839571E378
:101A10007D9370E32A95E1F71124EF90FF900F91E9
:101A20001F91CF91DF91992787FD90950895FC0133
:101A30000590615070400110D8F7809590958E0FF9
:101A40009F1F0895FC016150704001900110D8F76C
:101A5000809590958E0F9F1F08950F931F93CF939E
:101A6000DF938C01EB018B8181FF1BC082FF0DC0D6
:101A70002E813F818C819D812817390764F4E8818C
:101A8000F9810193F983E88306C0E885F985802F01
:101A90000995892B31F48E819F8101969F838E83D6
:101AA00002C00FEF1FEFC801DF91CF911F910F917F
:101AB0000895A0E0B0E0EFE5FDE00C94180CFE0105
:101AC00035966191719180915D0290915E02AF01B6
:101AD0000E947B062096E2E00C94340C0F931F9337
:101AE000CF93DF938C01E0915D02F0915E028381E0
:101AF00081FF21C0C0E0D0E00DC0E0915D02F09117
:101B00005E0220853185BF01F9010995892B11F00D
:101B1000CFEFDFEFF80181918F01882371F7E0911A
:101B20005D02F0915E02208531858AE0BF01F901F6
:101B30000995892B11F0CFEFDFEFCE01DF91CF9127
:101B40001F910F910895FA01AA27283051F12031F1
:101B500081F1E8946F936E7F6E5F7F4F8F4F9F4F41
:101B6000AF4FB1E03ED0B4E03CD0670F781F891F83
:101B70009A1FA11D680F791F8A1F911DA11D6A0F51
:101B8000711D811D911DA11D20D009F468943F9104
:101B90002AE0269F11243019305D3193DEF6CF0103
:101BA0000895462F4770405D4193B3E00FD0C9F7C9
:101BB000F6CF462F4F70405D4A3318F0495D31FD36
:101BC0004052419302D0A9F7EACFB4E0A695979589
:101BD000879577956795BA95C9F70097610571055F
:101BE00008959B01AC010A2E0694579547953795A9
:101BF0002795BA95C9F7620F731F841F951FA01D03
:061C00000895F894FFCFE7
:101C060044656C6976657279204D617A652D536FEE
:101C16006C76696E6720526F626F7420496E6974C4
:101C260069616C697A6564210053746174653A2050
:101C36002564094C6566743A20257520636D09464E
:101C4600726F6E743A20257520636D095269676854
:101C5600743A20257520636D0A00454D4552474567
:101C66004E43593A205061796C6F6164204C6F7312
:101C760074210046616C736520616C61726D212070
:101C86005061796C6F6164207265636F7665726509
:101C9600642E005061796C6F6164206465746563BD
:101CA6007465642E2E2E20766572696679696E6774
:101CB6002E2E2E005041594C4F414420434F4E4644
:101CC60049524D45442E20474F21005061796C6F93
:101CD60061642072656D6F766564206561726C79EA
:101CE6002E005475726E696E672025750A00504184
:101CF600594C4F414420434F4E4649524D4544208E
:101D06004C4F53542E20457865637574696E672071
:101D1600552D5475726E2E004C6F6F6B696E672E63
:101D26002E2E00230026002900250028002B002443
:101D36000027002A0001DC05000000020000000068
:061D46006206000000002F
:00000001FF
